:020000040800F2
:104000005849002065410008DB800008177300084C
:10401000D9800008D1440008819700080000000002
:10402000000000000000000000000000C58600083D
:104030000B45000800000000FD800008C78600084E
:104040007F4100087F4100087F4100087F41000850
:104050007F410008FF8000087F4100087F41000881
:104060007F4100087F4100087F410008D5440008D7
:104070007F4100087F4100087F4100087F41000820
:104080007F4100087F4100087F4100087F41000810
:104090007F4100087F4100087F4100087F41000800
:1040A0007F4100087F4100087F4100087F410008F0
:1040B0007F410008C98700087F4100082573000878
:1040C000197300087F4100087F4100087F41000804
:1040D0007F410008299700087F4100087F410008C0
:1040E0007F4100087F4100087F4100080000000078
:1040F00000000000000000000000000000000000C0
:1041000000000000000000007F4100087F4100081F
:104110007F4100087F410008D5870008E18700083B
:104120007F4100087F4100087F4100087F4100086F
:104130007F4100087F4100087F4100087F4100085F
:104140007F4100087F4100087F4100087F4100084F
:10415000DFF80CD000F0E6F80048004715A0000892
:10416000584900200648804706480047FEE7FEE71A
:10417000FEE7FEE7FEE7FEE7FEE7FEE7FEE7FEE717
:1041800075870008514100082DE9F05F05460020C1
:1041900092469B4688460646814640241BE02846B8
:1041A00041464746224600F020F853465A46C01A78
:1041B000914110D311461846224600F06CF82D1A92
:1041C00067EB01084F4622460120002100F063F80A
:1041D00017EB00094E41201EA4F10104DFDC484624
:1041E00031462A464346BDE8F09F202A04DB203AA8
:1041F00021FA02F00021704721FA02F3D040C2F107
:104200002002914008431946704740EA01039B078A
:1042100003D009E008C9121F08C0042AFAD203E03B
:1042200011F8013B00F8013B521EF9D27047D2B29F
:1042300001E000F8012B491EFBD270470022F6E78F
:1042400010B513460A4604461946FFF7F0FF20460C
:1042500010BDC10F80EAE0700844CA079623002110
:1042600000F031B896230022114600F02CB820F05F
:104270000040C10DC0F3160040F400007F2901DAB0
:1042800000207047962903DCC1F19601C8407047B1
:10429000963988407047202A04DB203A00FA02F160
:1042A000002070479140C2F1200320FA03F3194324
:1042B000904070470029A8BF7047401C490008BFC4
:1042C00020F00100704710B4B0FA80FC00FA0CF046
:1042D00050EA010404BF10BC704749B1CCF120047E
:1042E00021FA04F411FA0CF118BF0121214308430B
:1042F000A3EB0C01CB1D4FEA00614FEA102042BF37
:10430000002010BC704700EBC35010440029A4BF2C
:1043100010BC7047401C490008BF20F0010010BCD1
:1043200070470000064C074D06E0E06840F00103CE
:1043300094E8070098471034AC42F6D3FFF70CFF1F
:1043400008AE000828AE000870B58C1810F8015BA4
:1043500015F0070301D110F8013B2A1106D110F81E
:10436000012B03E010F8016B01F8016B5B1EF9D122
:104370002B0705D40023521E0DD401F8013BFAE7A8
:1043800010F8013BCB1A921C03E013F8015B01F813
:10439000015B521EF9D5A142D8D3002070BD0000A8
:1043A00070B5044600688168C943C9071CD181689B
:1043B00021F00101816000F0D7FF05460FE000BF4A
:1043C00000F0D2FF401B022809D9A06A40F010007B
:1043D000A062E06A40F00100E062012070BD206848
:1043E0008068C043C007EBD0002070BD10B5014607
:1043F000406A826A12F0500F05D0006A026BBDE875
:10440000104008461047816A41F4007181620168DA
:104410008968C1F3424107290CD1C16851B9816A49
:1044200021F480718162816AC90403D4816A41F0F8
:104430000101816200F086FA10BD10B5406A816A00
:1044400041F040018162C16A41F00401C16200F0A3
:10445000CCFA10BD10B5406A00F0C6FA10BD0000DD
:10446000F8B500260446009600688168C943C9076C
:1044700028D0816841F00101816013481349006828
:10448000B0FBF1F000E0401E00900028FBD100F0EE
:104490006BFF054611E000BF00F066FF401B0228DD
:1044A0000BD9A06A40F01000A062E06A40F0010061
:1044B000E06284F824600120F8BD20688068C04371
:1044C000C007E9D10020F8BDD002002040420F0013
:1044D000FEE70000014800F0BDBC0000BC04002065
:1044E00030B590F840500124AC40C56B6C60046856
:1044F00063604368102B036803D099600068C26052
:1045000030BD9A600068C16030BD70472DE9F05F32
:104510009048924FDFF84092B0F8420200244FF4E6
:10452000007B4FF00108A7F18005012816D1A8886B
:104530005946401CA880484600F008FF10B9E8889A
:10454000401CE880A888142808D1E888062802D3EF
:10455000C7F8688000E0BC66AC80EC80804E4FF409
:104560008071F06B4000F063484600F0EFFE0028D9
:10457000F06B4FF6FE7912D000EA0900774AF0633B
:1045800080320146D464906720460346C7F87040E5
:1045900011F0010C06D0102806D2401C04E040F0B7
:1045A0000100EBE700B1401E49085B1C102BEFDB5C
:1045B0009167D064C7F838C03B67306CDFF8A4B1AE
:1045C0004000306492464FF40071584600F0BEFE41
:1045D0000028306C13D000EA09003064CAF850405B
:1045E000CAF87C000246B1462046564601463C6762
:1045F00012F0010306D0102806D2401C04E040F05F
:104600000100EAE700B1401E5208491C1029EFDB07
:10461000F2673065BB633967F16C0E2904D25249E9
:10462000C968524A914202DAC5F8608000E02C66FF
:104630000E287DD301224021DA465846C5F8108065
:1046400000F08DFE01228021504600F088FE4FF4DC
:10465000807801224146504600F081FEDFF810B11B
:1046600000224FF48041584600F079FE00224FF4BA
:104670000041584600F073FEDFF8F8B00122022135
:10468000584600F06CFE01221146584600F067FEC5
:104690002C66BC66C9F81840C9F81C40C9F820400F
:1046A000B461F4613462F460346174612C646C64EC
:1046B000AC646C66AC66EC667462B462F4623463DB
:1046C0007463B463F46334647464B464F46434652C
:1046D0002C676C67AC67EC6148462C626C62446482
:1046E0008464C9F84C40AC62EC6201222021584637
:1046F0002C6300F034FE01224021584600F02FFECA
:1047000001225103504600F02AFE01221146504674
:1047100000F025FE01220421504600F020FE012277
:104720000821504600F01BFE01225102584600E0CD
:104730000DE000F014FE01224146584600F00FFE45
:104740005846BDE8F05F0122802100F008BE2C61D0
:10475000BDE8F09FC805002000080140800000204F
:104760008001002000100140D402002000002F45ED
:10477000001401400018014072B6704762B67047DD
:10478000F8B500250446009590F82400012808D0CB
:10479000012084F824002046FFF702FE060002D024
:1047A0004BE00220F8BDA06A20F4885040F00200DF
:1047B000A062022001F05AFB22490968B1FBF0F027
:1047C000400000E0401E00900028FBD12046FFF78B
:1047D00047FE2068816841F00801816000F0C4FD57
:1047E000074604E000F0C0FDC01B0A2811D820686D
:1047F00080680007F6D42068816841F00401816078
:1048000000F0B2FD07460EE000F0AEFDC01B0A2826
:1048100009D9A06A20F0020040F01000A06284F8DC
:1048200024500120F8BD206880684007ECD4A06ABD
:1048300020F0020040F00100A06284F824503046CD
:10484000F8BD0000D0020020F8B50024009490F8D4
:1048500024202546012A12D0012280F824204A680B
:104860001F23072A0DD20668776B521E02EB8202C5
:1048700093409F430B6893401F43776319E00220E6
:10488000F8BD06680D2A0AD2376BD21F02EB8202EE
:1048900093409F430B6893401F43376309E0F76AD7
:1048A0000D3A02EB820293409F430B6893401F43F3
:1048B000F7620A68072306680A2A0AD3F7680A3AE1
:1048C00002EB420293409F438B6893401F43F76083
:1048D00008E0376902EB420293409F438B689340A4
:1048E0001F4337610A68102A01D0112A20D1124BC8
:1048F00002689A4217D193681B0219D4936843F453
:10490000000393600968102912D10C490C4A096808
:10491000B1FBF2F101EB8101490000E0491E009179
:104920000029FBD104E0816A41F020018162012469
:1049300080F824502046F8BD00240140D002002019
:1049400040420F002DE9F0470068224988423FD1DC
:10495000214800F0A9F9214C208842F2AC61204E98
:104960004843B0FBF6F0FFF77DFC1B4D303D28605F
:10497000FFF77DFC81461B4F608842F2AC614843E3
:10498000B0FBF6F0FFF76EFC6860FFF770FC804646
:10499000A08842F2AC614843B0FBF6F0FFF762FC3E
:1049A000A860FFF764FC0646E088FFF75BFCE86060
:1049B000A4F5AC71CA6B09EB0200A7F808020A6CF7
:1049C00008EB0200A7F80A02496C7018A7F80C025D
:1049D000BDE8F0870024014004030020D801002036
:1049E000B2C30200C8050020704770472DE9F041AE
:1049F0004FF0000704003D467ED0A06A002628B98B
:104A0000E66284F82460204600F07EF82046FFF736
:104A1000C7FCA16AC90600D420B1A06A40F010000A
:104A2000A06269E0A16A21F4885141F00201A1620B
:104A30006268E169E3680A4347EA43010A43A168FF
:104A40004FF48077B94209D0012907D05FF0000107
:104A5000D4F814C0BCF1010F02D00AE03946F7E7E0
:104A6000F3B1A36A43F02003A362E36A43F00103B6
:104A7000E3622368D3F804C02CF4694C4CEA010CBF
:104A8000C3F804C021688B68DFF870C003EA0C0328
:104A900013438B60A168B9420BD0012909D00CE007
:104AA000DFF85CC0A3690CEB43330B4343F40061B4
:104AB000DFE7218A0D05A5F580152168CB6A23F46F
:104AC00070032B43CB62216889680E4B19409142D9
:104AD00008D1E662A16A21F0020141F00101A16260
:104AE000BDE8F081A06A20F0020040F01000A06252
:104AF000E06A40F00100E0620120F1E7FDF7E1FF2C
:104B000000E0FFFFFE0E1FFF30B5054600681749A5
:104B100085B0884228D11648816941F400718161CD
:104B20008069694600F40070049099200090032089
:104B30000190104800F02CFB104C0F4880212060A1
:104B400000206060C4E90201490021618900C4E9D4
:104B50000510E061204600F0A1FA18B17D2108A0FF
:104B600004F00FFE2C62656205B030BD00240140E8
:104B7000001002400008014008000240BC04002070
:104B80002E2E2F5372632F73746D33326631787803
:104B90005F68616C5F6D73702E6300002DE9F047F4
:104BA000894604463B4900683B4F0E1D90468842AB
:104BB00001D0B84207D1306810F4702F03D001251E
:104BC0002846BDE8F08794F8240001280CD0012085
:104BD00084F824002046FFF743FC05004FF0000056
:104BE00004D084F82400EBE70220EAE7A16A40F64B
:104BF0000162914341F48071A1622168B94218D1E8
:104C0000326812F4702F14D0A16A41F48011A162AD
:104C10003168490505D5A16A21F4005141F480515C
:104C2000A162A16AC9040AD5E16A21F00601E16224
:104C300006E0A26A22F48012A2624968E9E7E06213
:104C400084F82400216A15488862216A1448C862E1
:104C5000216A1448086321686FF002000860206828
:104C6000816841F480718160216843464A464C3135
:104C7000206A00F055FA20688168C1F34241072993
:104C8000816803D041F48011816099E741F4A0016B
:104C9000FAE700000024014000280140ED4300082D
:104CA000554400083B44000810B5044690F8240021
:104CB000012807D0012084F824002046FFF770FB6C
:104CC00010B10EE0022010BD2068816821F48071CF
:104CD0008160206A00F00EF8A16A30B141F0400115
:104CE000A162002184F8241010BD21F4885141F004
:104CF0000101F5E701680A6822F00E020A60016806
:104D00000A6822F001020A6090F84020C36B01217A
:104D100001FA02F25A6080F82110002180F8201078
:104D2000084670472DE9F05F90F821100024022911
:104D300003D004218163012485E001680A6822F020
:104D40000E020A6001680A6822F001020A603F4E02
:104D50003E4FB215DFF8F4C0DFF8F090DFF8ECA0BA
:104D6000DFF8E8B0DFF8E4E00168783F13011502EE
:104D7000ACF1640CA9F15009AAF13C0AABF1280B83
:104D8000AEF1140E4FF48018B14227D9B9420ED0BB
:104D9000614512D049451DD0514518D0594518D00C
:104DA000714501D1424615E0294EB14201D101229F
:104DB00010E0274E1436B14201D110220AE0244EF1
:104DC0002836B14206D0224A3C32914201D11A46DD
:104DD00000E02A461E49091F0A602BE0B94213D0A1
:104DE000614517D0494522D051451DD059451DD0A8
:104DF000714501D142461AE0B14202D14FF08072B2
:104E000015E0134EB14201D1012210E0104E1436CC
:104E1000B14201D110220AE00D4E2836B14206D02F
:104E20000B4A3C32914201D11A4600E02A4607491A
:104E300080394A60012180F82110002180F820107B
:104E4000416B01B188472046BDE8F09F80000240D9
:104E5000080402402DE9F05FC16B0A6801680B6825
:104E6000046C4FF0040808FA04F8844D844E854F12
:104E7000DFF814C2DFF81492DFF814A2DFF814B2DE
:104E8000DFF814E218EA020F65D05FEA437862D5D2
:104E90000A68920603D40A6822F004020A60DFF866
:104EA000F0814FF48062016808F1140813011402C4
:104EB000414524D9A9420DD0B1420FD0B9421AD0F0
:104EC000614515D0494515D0514501D1120312E075
:104ED000594501D104220EE0714501D140220AE07A
:104EE0006D4D1435A94206D06B4A2832914201D14A
:104EF0001A4600E022466749091F0A6029E0A942D4
:104F000013D0B14215D0B94220D061451BD04945DC
:104F10001BD0514502D14FF4800217E0414502D128
:104F20004FF0806212E0594501D104220EE0714534
:104F300001D140220AE0584D1435A94206D0564A04
:104F40002832914201D11A4600E022464B490839E5
:104F50004A60C16A71E04FF0020808FA04F818EAE2
:104F6000020F70D05FEA83786DD50A68920606D486
:104F70000A6822F00A020A60012180F82110DFF895
:104F800010814FF40072016808F114081301140233
:104F9000414524D9A9420DD0B1420FD0B9421AD00F
:104FA000614515D0494515D0514501D1120312E094
:104FB000594501D102220EE0714501D120220AE0BB
:104FC000354D1435A94206D0334A2832914201D1D9
:104FD0001A4600E022462F49091F0A6029E0A9422B
:104FE00013D0B14215D0B94220D061451BD04945FC
:104FF0001BD0514502D14FF4001217E0414502D1B8
:105000004FF0007212E0594501D102220EE07145C5
:1050100001D120220AE0204D1435A94206D01E4AB3
:105020002832914201D11A4600E02246134908393C
:105030004A60002180F82010816A00291CD0BDE858
:10504000F05F0847FFE70825A540154214D01A076E
:1050500012D50A6822F00E020A6090F84020C36B55
:10506000012101FA02F25A60816380F821100021C7
:1050700080F82010016BE0E7BDE8F09F08000240D7
:105080001C00024030000240440002405800024030
:105090006C000240080402401C04024030B560B1BC
:1050A0001C4A03681421934209D21B4A1A44B2FBDA
:1050B000F1F18900016419490AE0012030BD154A67
:1050C00052421A44B2FBF1F18900016411490839D6
:1050D000C163022180F821101A6843F6F0718A43F7
:1050E000F0E901142143D0E902452C43214304692E
:1050F00021434469214384692143114319600021FC
:1051000041628162C162016341630122427701779A
:10511000084630BD08040240F8FFFDBF0000024011
:1051200070B5044690F82000002501280CD001201D
:1051300084F8200094F821600020012E06D084F825
:1051400020000225284670BD022070BD022684F88A
:105150002160A0632068066826F0010606602046EC
:10516000FFF7BEF9E06A00282068016802D041F02C
:105170000E0106E021F0040101602068016841F0A1
:105180000A0101602068016841F001010160D9E76E
:105190002DE9F84FDFF890A100220AF1040B144624
:1051A00001274FF00F090BF1040E00BF0B6807FA3F
:1051B00004F52B40AB4274D1DFF870C14E68A6EB0A
:1051C0000C0866452BD00DDC032E34D005DC36B33D
:1051D000012E19D0022E2FD11BE0112E16D0122E27
:1051E0002AD119E0B8F5881F19D006DCB8F5803F40
:1051F00015D0B8F5801F1FD111E0B8F5001F0ED0F3
:10520000B8F5041F18D10AE0CA6815E0CA68121D73
:1052100012E0CA6808320FE0CA680C320CE08A68F3
:105220002AB1012A4FF0080203D0456104E00422AC
:1052300002E0056100E00022FF2B01D8064601E0F4
:1052400000F104064FEA840501D9A5F12005D6F83E
:1052500000C009FA05F82CEA080C02FA05F54CEA38
:10526000050CC6F800C04D68ED0057D5304DAE694D
:1052700046F00106AE61AD6924F0030605F00105B4
:1052800000952C4D06EB050CDCF80850A6074FEAFC
:10529000167809FA08F6B543274EB04202D1002627
:1052A00010E03BE0254EB04201D101260AE0244E39
:1052B000B04201D1022605E0224EB04201D10326C0
:1052C00000E0042606FA08F62E43CCF808604D6884
:1052D000DAF80060ED03554601D51E4300E09E4319
:1052E0002E604D68DBF80060AD035D4601D51E43BE
:1052F00000E09E432E604D68DEF80060ED027546CA
:1053000001D51E4300E09E432E604D68AD020E4D58
:105310002E6801D51E4300E09E432E60641C102CB5
:10532000FFF444AFBDE8F88F000401400000111005
:10533000001002400000014000080140000C014044
:1053400000100140001401400C0401408068084036
:1053500000D001207047C2684A40C26070470AB15D
:10536000016170470904FBE701488068704700004D
:10537000C40200207047704770B504460068456954
:10538000466830490D420DD0F1050BD5216C41F036
:10539000010121646FF4807141612068016841F46A
:1053A0000041016015F4813F09D0F00507D5206C5C
:1053B00040F00200206421686FF40070486115F429
:1053C000823F28D0F00526D594F83E30628D94F8BF
:1053D0003D00216B202B08D13AB921280ED0292875
:1053E0000CD0282801D1212908D0206C40F00400DD
:1053F000206494F83E00102804D008E0204602F013
:1054000067FB08E02068016841F4007101602168D1
:105410006FF48060486115F4843F09D0F00507D52A
:10542000206C40F00800206421686FF4006048613F
:10543000206C002804D02046BDE8704001F0A0BFD9
:1054400070BD0000000101002DE9F05F0268044614
:10545000D2F818805569566890F83E007449DFF814
:10546000D0A1DFF8CCB1DFF8CC918F1C0AF17E0A15
:105470000BF13E0B102812D0402810D00D425BD00B
:10548000B00559D5936920460021DB435B0700D561
:1054900001219269D243120648D5828947E015F06E
:1054A000011F05D0B00503D5204602F01CFA10E01C
:1054B0005F48801D054205D0B00503D5606CC0B2C1
:1054C000106106E00D4204D0B00502D5204602F07E
:1054D0007DF918EA090F14D015EA0A0F08D07005F3
:1054E00006D53D4206D12046BDE8F05F02F0EAB89D
:1054F0003D421FD0B0051DD52046BDE8F05F02F04B
:10550000A0B815EA0B0F08D0700506D53D4206D1AC
:105510002046BDE8F05F02F03DB83D420AD0B0053C
:1055200008D52046BDE8F05F01F0D0BF028B92B2F3
:10553000FFF721FFBDE8F09F3D480E30054206D041
:10554000B00504D52046BDE8F05F02F003BB18EAC1
:10555000090F4FF0280134D015EA0A0F23D0700547
:1055600021D53D4221D194F83D302046628D002A5C
:10557000E0D0426A541C4462046812782261428D71
:10558000521E4285428D002AD4D1292BD2D10268E5
:10559000536823F4806353602122026380F83D1036
:1055A00000F08DFBC6E73D42C4D0B005C2D5608D8A
:1055B0000028BFD0606A411C6162216800780861E0
:1055C00031E015EA0B0F22D0700520D53D4220D1E5
:1055D00094F83D302046648D002CABD01469426AAB
:1055E000551C45621470428D521E4285428D002A20
:1055F000A0D12A2B9ED10268536823F480635360A4
:105600002222026380F83D1000F058FB92E73D42F1
:1056100090D0B0058ED5608D00288BD01169606A5E
:10562000421C62620170608D401E608582E700004E
:1056300002000100040010007047000070B5040073
:105640001BD094F83D00002520B984F83C5020463A
:1056500000F0F8FA242084F83D002068016821F069
:105660000101016000F014FE404A6168914201D8D6
:105670003F4900E03F49884201D2012070BD3E49C8
:105680002368B0FBF1F159606368934206D94FF487
:10569000967359434FF47A73B1FBF3F12368491CB5
:1056A00019626168914210D84900401EB0FBF1F2C6
:1056B000521CC2F30B02042A01D2042022E0B0FBE8
:1056C000F1F0401CC0F30B001CE0A368CBB301EB6E
:1056D000C10202EB0116421EB2FBF6F2521C42F46A
:1056E0008042120536D06BB301EBC10202EB01110F
:1056F000401EB0FBF1F0401CC0F30B0040F48040B2
:1057000040F400402168C861D4E9070108432168DA
:105710000860D4E90310084321688860D4E90501D2
:1057200008432168C8602068016841F001010160F8
:105730002564202084F83D00256384F83E50002035
:1057400070BD00E008E001EB4106421EB2FBF6F23C
:10575000521CC6E70120D5E701EB4101401EB0FB1A
:10576000F1F0401CC0F30B00CAE70000A086010066
:1057700080841E0000093D0040420F002DE9FF4FCC
:1057800081B099468B4604464FF00108FFF7ECFDC7
:10579000054694F83D0020287BD1192301224D496C
:1057A0002046009502F06BFA002872D194F83C0074
:1057B00001286ED0012084F83C0020680168C907E8
:1057C00003D1016841F0010101602068016821F402
:1057D00000610160242084F83D00002626643E48D4
:1057E000E06220272068016841F4807101604B4627
:1057F00000224FF001112046009502F040FA0028E7
:1058000058D121680BF0FE000861FFF7ADFD21685B
:10581000054648694969C0F3400094F83D20C1F34A
:1058200080214FF0A00A12E0B9F1000F04D0FFF779
:105830009BFD411B494501D984F83DA02168486979
:105840004969C0F3400094F83D20C1F3802108432A
:1058500001D1A02AE8D184F83D7020684169C9438C
:10586000890717D4016841F400710160206841691B
:1058700080691923012217492046009502F0FFF99B
:10588000C0B984F83D7084F83C60002005B0BDE8E4
:10589000F08F1DE0016841F40071016021686FF430
:1058A00080604861192301220A492046009502F0D0
:1058B000E6F908B10320E9E74146039808F1010839
:1058C00081428FD384F83D7084F83C600120DDE78D
:1058D0000220DBE7020010000000FFFF7047704766
:1058E00070477047704700002DE9FF4F83B09A461C
:1058F000DDE9118793460446DDF84090FFF734FD5B
:10590000054694F83D00202872D1192301227B49D5
:105910002046009502F0B3F90028F5D194F83C0038
:10592000012865D0012084F83C0020680168C9077F
:1059300003D1016841F0010101602068016821F490
:1059400000610160222084F83D00402084F83E0080
:1059500000262664C4F82490A4F82A806848E062EF
:10596000608D2085CDE9007553465A46204604993E
:1059700001F0E6FF28B1206C84F83C60042851D087
:1059800075E0208DDFF87C8168B1012814D00228F1
:10599000206801681ED041F480610160206841697F
:1059A000806900909BE020684169816900910168ED
:1059B00041F40071016092E02068016821F4806187
:1059C000016072B62068416981690091016841F403
:1059D00000710AE041F40061016072B6206841691B
:1059E00081690091016821F48061016062B676E00E
:1059F00081E0032850D801280BD002283B464FF005
:105A0000000241462046009512D002F038F970BBE2
:105A100013E02A463946204602F0A6F930B1206C40
:105A2000202824D0012007B0BDE8F08F20684BE08B
:105A300002F025F9D8B972B61BE02068016821F49C
:105A40008061016072B620680169606A421C62620E
:105A50000170208D401E2085608D401E60853B4674
:105A6000002241462046009502F009F908B10320C2
:105A7000D9E72068016841F400710160206801697C
:105A8000606A421C62620170208D401E2085608D1C
:105A9000401E608562B6C9E72A463946204602F0B4
:105AA00063F90028BBD120680169606A421C626208
:105AB0000170208D401E2085608D401E608520680D
:105AC0004169C94349070AD40169606A421C62629C
:105AD0000170208D401E2085608D401E6085208DC8
:105AE000002886D1202084F83D0084F83E6084F8A8
:105AF0003C60002097E7022095E7000002001000BC
:105B00000000FFFF040001002DE9FF4F83B09A461B
:105B1000DDE9118793460446DDF84090FFF724FC49
:105B2000064694F83D0020287DD1192301224349DF
:105B30002046009602F0A3F800287CD194F83C009F
:105B4000012878D0012084F83C0020680168C9074A
:105B500003D1016841F0010101602068016821F46E
:105B600000610160212084F83D00402084F83E005F
:105B700000252564C4F82490A4F82A803048E06207
:105B8000608D2085CDE9007653465A46204604991B
:105B900001F04EFF80B3206C84F83C50042848D0BC
:105BA00008E032463946204602F00FF930B1206C49
:105BB000042839D0032007B0BDE8F08F606A411C8B
:105BC0006162216800780861208D401E80B22085C6
:105BD000618D491E618521684A69D24352070BD401
:105BE00068B1606A421C626200780861208D401EC4
:105BF0002085608D401E6085208D0028D1D13246E1
:105C00003946204602F014F80028D0D154F83D0B54
:105C1000016841F400710160202004F81E09E57755
:105C200065770020C7E706E02068016841F400714D
:105C300001600120BFE70220BDE700000200100064
:105C40000000FFFF00B50068184985B088422AD1DE
:105C50004FF4407000901220019003200390694699
:105C60001348FFF795FA1348416841F0E06141F0AD
:105C7000020141601048C16941F40011C161C0696D
:105C8000002200F40010049003211F2000F0A4F86B
:105C90001F2000F095F800220321202000F09CF83E
:105CA000202000F08DF805B000BD00000054004039
:105CB000000C014000000140001002407047704796
:105CC000024881680278114481607047C402002054
:105CD000074810B5016841F010010160032000F091
:105CE0009BF8002000F006F800F024F8002010BD1A
:105CF0000020024070B50D4D04464FF47A712878AB
:105D0000B1FBF0F00A490968B1FBF0F000F00FFFB9
:105D100048B9102C07D200222146501E00F05CF832
:105D200000206C6070BD012070BD0000C402002026
:105D3000D0020020204808B5816941F0010181614D
:105D4000806900F001000090032000F065F8002257
:105D500011466FF00B0000F03FF8002211466FF083
:105D60000A0000F039F8002211466FF0090000F037
:105D700033F800221146501F00F02EF80022114681
:105D8000101F00F029F800221146901E00F024F8A0
:105D900000221146501E00F01FF800221146052077
:105DA00000F01AF8052000F00BF80448416821F0D3
:105DB000E061416008BD00000010024000000140A9
:105DC00000F01F02012191404009800000F1E02015
:105DD000C0F8001170470000F0B40E4B1B680C4671
:105DE000C3F30223C3F10705042D00D90425191DAF
:105DF000072901D2002300E0DB1E012606FA05F187
:105E0000491E214099409E40761E16403143F0BC09
:105E100002F064B90CED00E0064900F007020868E2
:105E20004FF6FF03184040EA0220034A104308607F
:105E3000704700000CED00E00000FA05BFF34F8F43
:105E400005480168054A01F4E06111430160BFF3B0
:105E50004F8F00BFFDE700000CED00E00400FA05E5
:105E6000014901200862704700000E4230B542A48B
:105E700001461DCC89B004AD85E81D0042A41DCCAF
:105E80008DE81D000020444B444C042941D00BDC1C
:105E9000012959D002293AD100F00AFA6168C1F308
:105EA0008131491C490030E0082948D010292ED101
:105EB00062682168C9012AD504A8C2F38341415C04
:105EC000D0031BD5E06AE26A00F00F001DF8000065
:105ED000D2030AD5E26AC2F30315E26A6D1CB3FB72
:105EE000F5F3C2F30322921C5343B3FBF0F09DF889
:105EF0001D2048438A4203D1400801E02848484316
:105F00006168490203D440000321B0FBF1F009B0FD
:105F100030BDE16A890314E000F0DAF9F7E721689F
:105F2000C900F4D5E06AE16AC0F30310401CB3FB7A
:105F3000F0F0C1F30331891C48434000E7E7E16A10
:105F400049030029EBDBE7E7226AC2F301210129BB
:105F500003D1920701D5C803D9E7022905D1626AA6
:105F6000920702D549F64040D1E70329CFD12168F5
:105F70008903CCD50B48CAE70000040506070809C9
:105F800000000000000D00000102030405060708E0
:105F9000090A0B0C0D0E0F1040787D010010024015
:105FA00000093D00F0FA02002DE9F84304460078AC
:105FB0005B4DC0074FF0010951D0E8690026C000D1
:105FC00008D4E86940F08050E861E869012600F0F3
:105FD0008050009053480168C90512D4016880467A
:105FE00041F480710160FFF7BFF9074605E000BF8B
:105FF000FFF7BAF9C01B642877D8D8F80000C005AD
:10600000F6D5286A10F440701ED0A18801F44071C2
:10601000814219D0286A444920F44070C1F80090A8
:1060200000220A602862C0070ED0FFF79DF90746DC
:1060300041F2883805E000BFFFF796F9C11B4145E2
:1060400053D8286A8007F7D5286A616820F4407021
:10605000084328621EB1E86920F08050E86120788A
:10606000800705D56868A16820F44040084368604F
:106070002078400705D5E86AE16820F4003008433D
:10608000E8622078000705D5E86A216920F48020BD
:106090000843E862E86A800302D4E86A400333D523
:1060A0002868C00028D42868400105D5E86AA1699D
:1060B00000F0F000884225D1E86AA16920F0F000E4
:1060C0000843E862E86A616920F470400843E862C6
:1060D0001649C1F87090FFF747F9064608E004E05A
:1060E000FFF742F9801B642802D90320BDE8F8833A
:1060F00028688000F4D507E0E86A616900F4704020
:10610000884201D00120F1E72078C00605D56868F3
:10611000E16920F48000084368600020E6E70000A1
:106120000010024000700040400442420000424221
:106130002DE9F047DFF83C8105460E46D8F800000F
:1061400000F00700B0420CD2D8F8001021F007018F
:106150003143C8F80010D8F8000000F00700B04242
:1061600063D12878444C800705D56068A96820F081
:10617000F000084360602878C00745D068680128AF
:1061800016D02168022816D0890700294DDA6168E7
:1061900021F0030101436160FFF7E6F869680746F3
:1061A00041F2883001290FD00229814619D027E019
:1061B00021688903E9E78901E7E700BFFFF7D4F821
:1061C000C11B494501D918E081466068C0F38100D0
:1061D0000128F3D118E000BFFFF7C6F8C11B4945FD
:1061E0000BD86068C0F381000228F5D10CE000BF35
:1061F000FFF7BAF8C11B494502D90320BDE8F08773
:10620000606810F00C0FF3D1D8F80010404601F090
:106210000701B1420BD9016821F007013143016048
:10622000006800F00700B04201D00120E6E72878BE
:10623000400705D56068E96820F4E06008436060C5
:106240002878000706D56068296920F4605040EA84
:10625000C100606000F03CF86168084AC1F30311B6
:10626000515CC840064908600020FFF743FD00204C
:10627000C4E700000020024000100240F0AD00081A
:10628000D00200200148006870470000D0020020C2
:106290000448054900684968044AC1F30221515C79
:1062A000C8407047D00200200010024000AE000835
:1062B0000448054900684968044AC1F3C221515C99
:1062C000C8407047D00200200010024000AE000815
:1062D000F0B524A289B00FCA04AC84E80F0025A150
:1062E0000FC98DE80F002748416801F00C02042A0D
:1062F00004D0082A04D0244809B0F0BD2348FBE7A5
:1063000004AAC1F38343C903D45C28D5C16AC26A15
:1063100001F00F011DF80110D20316D5C26AC06A40
:10632000C2F30312521CA2FB0123C0F30320801C02
:10633000A0FB0415154F0026A1FB070C05FB07C5A4
:1063400001FB0651FDF720FF03E010486043B0FB5E
:10635000F1F09DF81D10A142CED14008CCE70C48C9
:106360006043C9E7000004050607080900000000B3
:10637000000D00000102030405060708090A0B0CC2
:106380000D0E0F100010024000127A0040787D01BF
:1063900000093D002DE9F84F04460078EA4DC0079A
:1063A00048D06868C0F38100012807D06868C0F34E
:1063B0008100022809D16868C00306D528688003D7
:1063C00038D5A06800286FD034E0A068B0F5803FD1
:1063D0000BD010B1B0F5A02F11D0286820F4803078
:1063E0002860286820F4802002E0286840F480308B
:1063F0002860A06888B1FEF7B7FF064609E0286864
:1064000040F480202860F0E7FEF7AEFF801B642890
:1064100078D828688003F7D50CE0FEF7A5FF06467C
:1064200005E000BFFEF7A0FF801B6428F0D82868B5
:106430008003F7D42078C54E80074FF001094FF054
:1064400000073CD5686810F00C0F07D06868C0F3EF
:106450008100022809D16868C00306D42868800733
:1064600015D5606901281FD111E06069B8B1C6F87F
:106470000090FEF779FF804606E000BFFEF774FF4C
:10648000A0EB08000228C3D828688007F6D5286842
:10649000A16920F0F80040EAC10028600FE03760F1
:1064A000FEF762FF804607E02DE100BFFEF75CFFCC
:1064B000A0EB08000228ABD828688007F6D4207823
:1064C00000072ED5A248E169E9B1C0F80090FEF7B7
:1064D0004BFF804606E000BFFEF746FFA0EB08003A
:1064E000022895D8686A8007F6D59A484FF4FA5181
:1064F0000068B0FBF1F0009000BF0098411E0091D1
:10650000FAD20EE0B0E00760FEF72EFF804605E00D
:10651000FEF72AFFA0EB0800022887D8686A8007E8
:10652000F6D42078400763D5E8694FF00008C00032
:1065300009D4E86940F08050E861E8694FF001084B
:1065400000F08050009084480168C90512D40168A9
:10655000834641F480710160FEF706FF824605E044
:10656000FEF702FFA0EB0A0064287DD8DBF80000EC
:10657000C005F5D5206901280AD008B1052813D037
:10658000286A20F001002862286A20F0040002E056
:10659000286A40F001002862206941F2883B98B1E6
:1065A000FEF7E2FE82460BE0286A40F00400286213
:1065B000EEE700BFFEF7D8FEA0EB0A01594553D81D
:1065C000286A8007F6D50CE0FEF7CEFE824605E08D
:1065D000FEF7CAFEA0EB0A01594545D8286A800794
:1065E000F6D4B8F1000F03D0E86920F08050E861DC
:1065F000E06AD0B36968C90307D56968C1F381014E
:10660000022902D1E96AC9037DD4022808D0E86AC8
:1066100020F48030E862B766FEF7A6FE80463BE0D5
:106620002868C00005D5E86A616B00F0F000884278
:1066300069D1B766FEF798FE804605E0FEF794FE46
:10664000A0EB0800642874D828680001F6D4E86A32
:10665000616B20F0F0000843E862E86A216B20F4E7
:1066600070600843E86201E063E018E0C6F86890F3
:10667000FEF77AFE804605E0FEF776FEA0EB080006
:10668000642856D828680001F6D508E0FEF76CFEAD
:10669000A0EB080064284CD828680001F6D4206AD2
:1066A00090B36968C1F3810102294AD00228376694
:1066B00003D0FEF759FE04463EE0FEF755FE0746BE
:1066C00005E000BFFEF750FEC01B022831D8286845
:1066D0008001F7D4606AB0F5803F09D1E86A61684B
:1066E0000843E862E86AE16820F00F000843E862C6
:1066F000D4E909010843696821F47411084368600A
:10670000C6F8609001E01CE019E0FEF72DFE04469B
:1067100005E000BFFEF728FE001B022809D8286804
:106720008001F7D50BE000BFFEF71EFE001B02281C
:1067300002D90320BDE8F88F28688001F4D4002036
:10674000F8E70120F6E70000001002400000424296
:1067500080044242D002002000700040024850F8FD
:10676000210080B270470000006C0040F8B50500C1
:106770004FF0000016460C46009006D02CB10022C7
:106780006946284600F019F808B10120F8BD287BB9
:106790002070E87BE070697B6170A97BA17056B1C5
:1067A00001F0B7FCE070607801F0B3FC6070A07895
:1067B00001F0AFFCA0700020F8BD2DE9F047914634
:1067C0000C465FEA00084AD084B3D8F8000040685D
:1067D000400744D4404601F03BFD4FF4616205465A
:1067E000B0FBF2F1B0FBF2F302FB13503C23B0FB21
:1067F000F3F0B5FBF2F6607002FB1650B0FBF3F25B
:1068000003FB1200A070182931D31820B1FBF0F758
:10681000B1FBF0F200FB12102070404601F011FDB8
:10682000411C04D0A84202D9461B02E017E04FF0F9
:10683000FF36A7EB071000EB4000C0EB001005EBA4
:10684000C0152946404601F052FD40B9701C01D0E8
:10685000711900E03146404601F035FD10B10120CC
:10686000BDE8F0873946404601F05EFC00E021704B
:10687000B9F1000F0BD0207801F04BFC207060784C
:1068800001F047FC6070A07801F043FCA07000208C
:10689000E6E7000070B5040003D0607C002610B16C
:1068A00005E0012070BD2674204600F043F8022068
:1068B0006074204600F010F9042578BB204601F0F2
:1068C0008AFC58BB2068416821F007014160A0683C
:1068D00020B11748016821F0010101601448001F30
:1068E0000168A26821F46071114301606068411C75
:1068F00004D10120FFF7BAFA80B1401E21688A68EE
:1069000022F00F0242EA10428A602168CA6860F3EE
:106910000F02CA60204601F079FC08B16574C0E737
:10692000E67301206073A0736074002070BD0000E6
:10693000306C004008B50068084988420DD1FFF767
:106940008FFA0748C16941F00061C161C06905491A
:1069500000F0006000900120086008BD00280040A1
:10696000001002403C0442422DE9F0410D46040073
:106970003BD0C5B3207C01283AD04FF0010884F801
:10698000108002206074E87872B301F0B9FBE07304
:10699000687801F0B5FB6073A87801F0B1FBA073D3
:1069A000C2B2617BE07B01F063FC2073287020465B
:1069B00001F04EFC4FF46161B0FBF1F100251829A4
:1069C0002DD91822B1FBF2F1A1EB011101EB41012C
:1069D000C1EB011100EBC1163146204601F087FCE6
:1069E0000427C8B90BE000E004E00120BDE8F08115
:1069F0000220FBE7E07368786073A878CFE7204651
:106A000001F01FFC411C0AD0B04208D206490144E3
:106A1000204601F058FC10B167742574E5E784F84E
:106A2000118025740020E1E7805101002DE9F0413B
:106A30000D46040024D01DB3207C012823D04FF044
:106A4000010884F81080022060742878EAB101F00F
:106A500057FB4FF4616100FB01F6687801F050FBD1
:106A6000C0EB001006EB8006A87801F049FB351852
:106A70002946204601F03BFC0026042710BB0FE00E
:106A80000120BDE8F0810220FBE74FF4616148433B
:106A90006978C1EB011100EB8100A9784518E7E79F
:106AA0002068416821F005014160204601F0C9FBE2
:106AB000411C0AD0A84208D206490144204601F0F0
:106AC00002FC10B167742674DAE784F8118026742A
:106AD0000020D6E78051010070B504000AD020687C
:106AE000416821F008014160FEF73EFC05464FF485
:106AF0007A7608E0012070BDFEF736FC401BB042FC
:106B000001D9032070BD206840680007F4D500203B
:106B100070BD4FF0E0210428086903D020F0040084
:106B20000861704740F00400FAE703F08FB810B531
:106B3000401EB0F1807F01D3012010BD4FF0E02452
:106B400060610F21601701F0C9FA0020A0610720E1
:106B50002061002010BD10B5FFF7E7FF10BD7047A2
:106B6000704730B590F83C20012A20D0012280F8EF
:106B70003C20022380F83D3003685C6824F07004F8
:106B80005C6003685C680D682C435C6003689C680B
:106B900024F080049C6003689C6849680C439C60F6
:106BA00080F83D20002180F83C10084630BD0220CE
:106BB00030BD10B5040003D094F83D0010B107E0DB
:106BC000012010BD002084F83C00204600F00CF8A5
:106BD000022084F83D00211D206801F007FE0120FD
:106BE00084F83D00002010BD08B51E4A01681E480B
:106BF00091420ED1C16941F00201C161C069002218
:106C000000F00200009003211D20FFF7E5F81D2091
:106C100022E0164A91420ED1C16941F01001C161D2
:106C2000C069002200F01000009002213620FFF71A
:106C3000D3F8362010E00E4A914211D1C16941F0DB
:106C40002001C161C069002200F0200000900121F4
:106C50003720FFF7C1F83720BDE80840FFF7B0B88C
:106C600008BD000000040040001002400010004079
:106C7000001400400168CA6842F00102CA6000685E
:106C8000016841F001010160002070470168CA6895
:106C900022F00102CA600068016A41F21112114239
:106CA00007D1016A9210114203D1016821F001015C
:106CB00001600020704770B5044690F83C00012840
:106CC00017D0012584F83C50022084F83D0020684C
:106CD000826822F0770222F47F428260086850289E
:106CE00037D00DDC202859D005DC88B3102841D1DD
:106CF00051E0022070BD302853D040283AD13FE007
:106D000060282ED070280BD0B0F5805F03D0B0F58E
:106D1000005F2FD110E02068816821F0070115E0A5
:106D2000CB68D1E90121206801F09EFD21688868C7
:106D300040F0770088601DE0CB68D1E90121206830
:106D400001F092FD2068816841F48041816011E08A
:106D50001EE0CA684968206801F098FD502120684B
:106D600006E0CA684968206801F0A1FD602120683A
:106D700001F084FD84F83D50002084F83C0070BD93
:106D8000CA684968206801F081FD40212068EFE76A
:106D900000212068ECE710212068E9E72021206825
:106DA000E6E730212068E3E7704770B504460068E5
:106DB00001694FF00005C943890715D4C168C9436B
:106DC000890711D4E91E01610120207720688069BC
:106DD0008007204602D0FFF7E7FF04E000F098F8B4
:106DE000204600F096F8257720680169C9434907D5
:106DF00017D4C168C943490713D46FF00401016176
:106E0000022020772068806910F4407F204602D05D
:106E1000FFF7CAFF04E000F07BF8204600F079F8A5
:106E2000257720680169C943090716D4C168C94399
:106E3000090712D46FF0080101610420207720684F
:106E4000C0698007204602D0FFF7AEFF04E000F0E3
:106E50005FF8204600F05DF8257720680169C94396
:106E6000C90617D4C168C943C90613D46FF010010D
:106E70000161082020772068C06910F4407F204617
:106E800002D0FFF791FF04E000F042F8204600F046
:106E900040F8257720680169C943C90708D1C1684E
:106EA000C943C90704D1891E0161204600F032F8A8
:106EB00020680169C943090609D4C168C9430906A4
:106EC00005D46FF0800101612046FFF748FE20687D
:106ED0000169C943490609D4C168C943490605D4B3
:106EE0006FF040010161204600F0BEF820680169A2
:106EF000C94389060BD4C168C943890607D46FF01A
:106F0000200101612046BDE87040FFF729BE70BD39
:106F1000704770472DE9FE4F074600684749484DC6
:106F20008842A5F1800464D102F03CFC45484068E9
:106F300008B1FEF783FFDFF8108104214046FEF719
:106F40000AFA60690026401C6061A86C401CA864B5
:106F5000022802D1AE64FDF7D9FA6069C82815DBB2
:106F60003A483B496661426849688A420ED02289A4
:106F7000C0E900210822CDE900024FF0FF31029163
:106F80001023628821883348FEF7BEFDE06CDFF8ED
:106F9000C8A04FF00109B0F5FA6F17DA01220821F5
:106FA0004046FEF7DCF9012210214046FEF7D7F9F2
:106FB000012204215046FEF7D2F9E06C401CE06447
:106FC0006E66012815DDC4F8509012E000220821F9
:106FD0004046FEF7C4F9002210214046FEF7BFF9F3
:106FE000002204215046FEF7BAF9C5F864902665E0
:106FF000E6641A493868884214D1144915480422B5
:1070000010393038FDF7CAFD686E012803D12069B8
:1070100008B901F085FF206D012803D1206908B966
:1070200001F058FC0E493868884205D10D480068C7
:1070300003B0BDE8F04F0047BDE8FE8F00140040EC
:10704000800000200070004000180140E80100208E
:107050009C04002034030020000C0140001000407C
:1070600000040040300200207047704770B502688D
:1070700004461068D168536910F00F0F50D003F028
:10708000010501F4907635435DD0C20705D0CA05ED
:1070900003D5E26B42F00102E263420705D5DA074D
:1070A00003D0E26B42F00202E263820705D5DA0701
:1070B00003D0E26B42F00402E263020705D5DA076F
:1070C00003D0E26B42F00802E263E26B002A33D0A5
:1070D000800604D5880602D5204602F0BDF9206856
:1070E0004069E16BC0F38010090700D428B3204643
:1070F00002F0A4F92068416949061AD5416921F0D6
:1071000040014161606BA0B11B494163606BFDF7B9
:1071100009FE002810D0606B416BBDE87040084745
:10712000830610D58B060ED52046BDE8704002F0D0
:1071300093B92046FFF799FF70BD2046FFF795FFF2
:107140000020E06370BD030606D50B0604D520467B
:10715000BDE8704002F084BA4006F3D54806F1D588
:10716000D168204621F04001D160202184F83910F7
:1071700000F0D0F870BD00002D94000870B5040038
:1071800004D094F83900002510B106E0012070BD4C
:1071900084F83850204600F023F8242084F8390081
:1071A0002068C16821F40051C160204602F0A0F9B6
:1071B0002068016921F4904101612068416921F052
:1071C0002A0141612068C16841F40051C160E56352
:1071D000202084F8390084F83A00002070BD0000B7
:1071E00010B50068184986B088422BD117488169CC
:1071F00041F4804181618069154C00F48040049025
:107200004020009002200190032003906946204610
:10721000FDF7BEFF00218020CDE900010291694603
:107220002046FDF7B5FF0B48416841F0E06141F0B1
:1072300004014160002211462520FEF7CDFD2520E6
:10724000FEF7BEFD06B010BD003801400010024040
:10725000000C01400000014070472DE9F84304464E
:1072600090F839001F4616460D46202850D1A5B18A
:107270009EB194F8380001284AD0012084F83800E3
:107280004FF00008C4F83C80212084F83900FEF754
:107290006BF8A6848146E68426E00120BDE8F883E9
:1072A000E08C401EE084A0684B46B0F5805F4FF054
:1072B00000024FF080012046009703D002F001FA4F
:1072C000E8B90DE002F0FDF9C8B928882168C0F3DB
:1072D00008004860206908B16D1C05E0AD1C03E0A2
:1072E000216815F8010B4860E08C0028D8D14B4686
:1072F000002240212046009702F0E3F908B1032064
:10730000CCE7202084F8390084F838800020C5E7D5
:107310000220C3E77047FEE70148FEF72DB80000E2
:10732000340300200148FEF78FB80000340300202A
:1073300010B5406A01680A6822F480620A60002180
:107340004185426B5163826B516390F83D3020223E
:10735000602B80F83D2080F83E1007D001680A6855
:1073600022F001020A60FEF767F910BD01640168AE
:107370000A6822F001020A60FDF7FCFF10BD000060
:1073800070B590F83D100446002520260068292994
:107390002DD02A292BD094F83D10602904D04168C3
:1073A000090501D484F83D60256384F83E500168E6
:1073B00021F40061016020684168090537D5416802
:1073C00021F400614160606B344990F82120012A6A
:1073D00012D04163606BFDF7A5FC38B320680168EB
:1073E00021F00101016084F83D60606B1CE02563C1
:1073F000282184F83D10DAE7A06B4163A06BFDF70C
:1074000091FC98B120684169C943490604D40169D7
:10741000606A421C626201702068016821F001010B
:10742000016084F83D60A06B416B88470FE094F8E1
:107430003D1060291DD04169C943490604D4016942
:10744000606A421C626201702046FEF7F5F894F80B
:107450003D0028280CD1206C400709D51048E06277
:10746000256384F83D6084F83E502046FEF736FAE6
:1074700070BD84F83D6025644169C943490604D460
:107480000169606A421C626201702068016821F033
:10749000010101602046FDF76DFFD8E73173000858
:1074A0000000FFFF01684A69D24352050CD46FF413
:1074B00080624A6104210164002140F8301F2022CB
:1074C00042730173012070470020704710B5C26AF3
:1074D000448D2F4B0168032C03D0448D022C15D012
:1074E0000AE0042A03D0082A01D09A4203D10A688C
:1074F00022F480620A6001680A69416A4B1C436297
:107500000A70418D491E4185002010BD042A12D009
:10751000082A10D09A420ED0022A0A6802D022F419
:10752000806201E042F480620A6001684A6822F4E5
:1075300040724A6008E04A6822F440724A6001687A
:107540000A6842F400720A6001680A69416A4B1CC9
:1075500043620A70418D491E418501680A69416A8A
:107560004B1C43620A70418D491E4185202180F8E1
:107570003D100021016390F83E2080F83E10402A23
:1075800002D0FEF7ACF9BFE7FEF7ABF9BCE70000AD
:107590000000FFFF10B590F83D1022294CD1418D1D
:1075A000032909D901680A69416A4B1C43620A70C0
:1075B000418D491E41853FE0022909D0032907D0AA
:1075C000C16A022901680A6818D022F4806217E0B3
:1075D000C16A022901680A6807D022F480620A6041
:1075E00001680A6842F4006201E042F480620A60C5
:1075F0000068416821F4806141601DE042F48062CE
:107600000A6001684A6822F4E0624A6001680A6917
:10761000416A4B1C43620A70418D491E41852021FD
:1076200080F83D100021016390F83E2080F83E1064
:10763000402A03D0FEF753F9002010BDFEF751F9A0
:10764000FAE710B5C26A90F83D10212921D1418D89
:1076500049B1416A4A1C4262026809781161418D50
:10766000491E418515E020230021042A13D0082A51
:1076700011D012F5803F0ED00268546824F4E06403
:1076800054601122026380F83E1080F83D30FEF70E
:1076900027F9002010BD0268546824F4E0645460A7
:1076A0000268146844F400741460016380F83D308B
:1076B00090F83E2080F83E10402AE8D1FEF712F9FB
:1076C000E7E7000010B590F83D1090F83E30C26A30
:1076D000048D24B1212934D0402B30D074E02129ED
:1076E000FAD120230021042A13D0082A11D012F540
:1076F000803F0ED00268546824F4E0645460112284
:10770000026380F83E1080F83D3000BFFEF7E8F8D5
:107710005AE00268546824F4E06454600268146813
:1077200044F400741460016380F83D3090F83E200A
:1077300080F83E10402AE9D1FEF7D4F844E022292F
:1077400042D1418D21B190F83E10402906D032E05F
:107750000068416821F48061416035E0016D31B11C
:10776000016D012911D0016D022915D02CE0C16CE9
:107770000129816C02D0C1F3072108E00268C9B277
:107780001161016D891C01651EE0816CC9B202683E
:107790001161016D491CF6E790F83D10222904D0D3
:1077A00090F83D10212906D00EE00068016841F4F0
:1077B0008071016008E0416A4A1C426202680978EF
:1077C0001161418D491E4185002010BD78B590F8AA
:1077D0003E50C26A046B90F83D6000230168222E7F
:1077E00006D1066D0EB9402D02D0056D25B107E01A
:1077F0004869886900901CE00569B5F5404F1AD0CA
:10780000458D85B3458D012D20D0428D022A4AD069
:107810000A6842F480620A6001684A68120503D56A
:107820004A6842F480524A6001684A698969009155
:107830000365002078BD4A698A6900920A6842F4AB
:1078400080720A60016D491C0165F2E712F5803F04
:107850000AD0042A21D0082A1FD0122C1DD0C26AB7
:10786000022A09D114E00BE00A6822F480620A605F
:1078700001684A68120503D50A6822F480620AE0AA
:107880004A698A6900920A6842F400720A60CFE786
:107890000A6842F480620A60C6E70A6822F48062DD
:1078A0000A600168ECE7C26A022A0A680BD042F457
:1078B00000620A6001684A698A6900920A6822F4D3
:1078C00080620A6006E042F480620A6001684A69E8
:1078D0008969009101684A681205A9D54A6842F48D
:1078E00080524A60A4E790F83E10402909D001690F
:1078F000B1F5804F10D0016D99B1016D012915D0FE
:107900001CE0016D19B9416C01F0FE0114E0416CFD
:10791000C9B241F001010FE090F83D102129F6D1E4
:10792000F1E7416CF02201F4407103E0416CF12277
:1079300001F4407142EAD1110068016100207047F2
:107940002DE9F84F0446006889460B9D016898466A
:10795000174641F4806101602068016841F480713C
:10796000016000954FF0011A0022514620460A9B03
:1079700000F085F9F0BB216809F0FE0008610AF10A
:10798000010B2B46594620460A9A00F0A9F918B176
:10799000206C042812D03AE0206841698069009088
:1079A0002A4620460A9900F010FA50B1206C0428AB
:1079B0002DD12068016841F4007101600120BDE80B
:1079C000F88FFEB2B8F1010F09D02168380A0861BA
:1079D0002A4620460A9900F0F8F90028E6D12068E6
:1079E00006612A4620460A9900F0EFF90028DDD109
:1079F000206800E00BE0016841F4807101600095AF
:107A00000022514620460A9B00F039F908B10320B4
:107A1000D5E7216809F0FF0040F0010008612B461E
:107A2000594620460A9A00F05BF90028B0D1C6E713
:107A30002DE9F843044600680D46DDE90897016822
:107A40009846164641F4807101604B4600224FF083
:107A500001112046009700F012F9E8B9216805F0FD
:107A6000FE0008613B464A461849204600F038F9B6
:107A700028B1206C04280FD10120BDE8F8832068CC
:107A80004169806900903A464946204600F09DF9D8
:107A900020B1206C042813D00320EEE7F5B2B8F132
:107AA000010F09D02168300A08613A46494620464C
:107AB00000F08BF90028ECD1206805610020DCE79C
:107AC0002068016841F400710160D5E702000100FF
:107AD0002DE9F04190F83D40C26A00231C4F20265A
:107AE00001686FF48065042A01D0082A01D1282C8E
:107AF00005D0212C17D04D610020BDE8F081C76270
:107B00004A6822F4E0624A6001684D6101680A68CF
:107B100022F480620A60036380F83D6080F83E30A2
:107B2000FDF7DCFEE8E7C7622122026380F83D60D2
:107B300080F83E304A6822F4E0624A6001684D6194
:107B400001680A6822F480620A60FEF7B8F8D3E799
:107B50000000FFFF38B590F83D2001684B6823F422
:107B6000E0634B60036800215C6900941C6844F08A
:107B700001041C6003681C6824F480641C600368B2
:107B80005C6824050BD590F83D40222C2BD090F852
:107B90003D402A2C27D0446B246864684485448D7A
:107BA000E4B15C69E443640707D41C69436A5D1C63
:107BB00045621C70438D5B1E438503685C69E4432A
:107BC000640607D41C69436A5D1C45621C70438DC2
:107BD0005B1E4385036C43F004030364036C23B111
:107BE000FFF7CEFB1FE0846BD6E72023282A09D0BD
:107BF0002A2A07D0292A05D0046B222C0CD0222A4D
:107C00000AD010E0094AC262016380F83D3080F872
:107C10003E10FDF763FE06E0016380F83D3080F81A
:107C20003E10FEF74BF8002038BD00000000FFFFBB
:107C300070B516460D4604461AE02046FFF732FCA2
:107C400008B1012070BD681C12D025B1FDF78CFB76
:107C5000801BA8420CD954F8400F40F0200044F893
:107C6000100900202060202161732073032070BD63
:107C700020684069C0434007DFD4002070BD2DE973
:107C8000F0471E4690460D460446C1F30747DDF80F
:107C9000209012E0701C10D02EB1FDF765FBA0EB18
:107CA0000900B04209D9002044F8300F2021617347
:107CB000A07320730320BDE8F0872068012F0AD04D
:107CC000806925EA00000004000C06D0002141452F
:107CD000E0D00020EFE74069F3E70121F7E700007B
:107CE0002DE9F0479A4691460D46044600264FF08E
:107CF0002008C1F307472AE020684069C0434005D7
:107D000012D42068016841F40071016021686FF4A9
:107D10008060486104202064266384F83D8084F8F4
:107D20003C600120BDE8F087B9F1FF3F0FD0B9F109
:107D3000000F05D0FDF718FBA0EB0A01494506D955
:107D400044F8306F84F80D8026730320EAE720683A
:107D5000012F07D0D0F8180025EA00000004000C1D
:107D6000E0D0C9E74069F7E72DE9F04100259046EA
:107D70000E460446202721E04069C043C0060CD4CB
:107D800021686FF0100048612564256384F83D7018
:107D900084F83C500120BDE8F0812EB1FDF7E4FAF3
:107DA000A0EB0800B04209D954F8400F40F0200081
:107DB00044F80409677025700320ECE720684169E6
:107DC000C9434906D8D40020E5E770B516460D46EC
:107DD00004461AE02046FFF765FB08B1012070BD9C
:107DE000681C12D025B1FDF7BFFA801BA8420CD940
:107DF00054F8400F40F0200044F8100900202060A3
:107E0000202161732073032070BD20684069C04346
:107E10000006DFD4002070BD3EB51D481B4900247C
:107E200001608915C0E902144461042505614FF41D
:107E300060214460C161FCF7D9FD00B1FEE701207B
:107E4000CDE90040694612480294FCF7FDFC00B100
:107E5000FEE703240220CDE9004069460C48FCF708
:107E6000F3FC00B1FEE7CDE9005469460848FCF791
:107E7000EBFC00B1FEE70720CDE9000569460448A8
:107E8000FCF7E2FC002800D0FEE73EBD00240140E4
:107E9000040300202DE9F047494886B0816941F08C
:107EA00040018161816901F040010491816941F0E3
:107EB00010018161816901F010010491816941F033
:107EC00004018161816901F004010491816941F03B
:107ED00008018161816901F008010491816941F023
:107EE000200181618069DFF8DC8000F020000490CF
:107EF00000224FF4AE714046FDF731FA012240F204
:107F0000A3214046FDF72BFADFF8BCA0012242F284
:107F1000C9115046FDF723FA002204215046FDF70F
:107F20001EFA2A4C002224212046FDF718FADFF819
:107F3000A0904FF44047002239464846FDF70FFA1B
:107F400040F2FF300125CDE900050226694603967F
:107F50004046FDF71DF942F2CD10CDE90005694616
:107F600003965046FDF714F92420CDE90005694633
:107F700003962046FDF70CF920150024CDE90004F6
:107F8000694640460294FDF703F9CDE9007569465C
:107F900048460396FDF7FCF86802CDE900046946FF
:107FA00050460294FDF7F4F8B811CDE90004694693
:107FB00008480294FDF7ECF806B0BDE8F087000031
:107FC000001002400018014000100140000C014068
:107FD00000140140000801400B4810B50949016038
:107FE0000A49416000214FF480428160C0E90312D8
:107FF00041618161C1610162FDF720FB002800D071
:10800000FEE710BD0054004034030020A0860100AC
:1080100010B5124886B010490024C0E900148460ED
:10802000C46004618461FEF7C4FD00B1FEE74FF453
:108030008050009069460948FEF73DFE00B1FEE71A
:10804000049404A905480594FEF78BFD002800D090
:10805000FEE706B010BD0000000400409C030020B5
:108060001CB50D480B49002401604FF43471C0E980
:10807000011405218461C160FEF79BFD00B1FEE79C
:108080000094694604480194FEF76BFD002800D077
:10809000FEE71CBD00100040DC0300201CB50D48AD
:1080A0000B49002401604FF43471C0E901143221FE
:1080B0008461C160FEF77DFD00B1FEE70094694672
:1080C00004480194FEF74DFD002800D0FEE71CBDDA
:1080D000001400401C040020FEE770470907090E49
:1080E000002806DA00F00F0000F1E02080F8141DEF
:1080F000704700F1E02080F8001470477047704727
:10810000010901EB810100F00F0000EB4100C0B25A
:108110007047002102E00A38C0B2491C0A28FAD28E
:10812000090740EA116070472DE9F0410446002537
:10813000C07B627BA37B42E0012A16D0032A14D0C5
:10814000052A12D0072A10D0082A0ED00A2A0CD0ED
:108150000C2A0AD0042A10D0062A0ED0092A0CD0E4
:108160000B2A0AD0022A0DD028E01F2B0CD30C2A90
:1081700005D101221346401C20E01E2B04D301230D
:10818000521C1BE01C2B02D203F1010316E011D19B
:1081900083B29E0710D16426B3FBF6F706FB1736B1
:1081A00036B94FF4C876B3FBF6F706FB17331BB9A5
:1081B0001D2303E01D2B01D1032201236D1C8D42E1
:1081C000BAD3D1B2E0736173DAB2A27300F050F89F
:1081D0002073BDE8F08170B50446FDF7C5F805468B
:1081E0004FF47A7606E0FDF7BFF8401BB04201D9A4
:1081F000032070BD206840688006F4D5206841687F
:1082000041F010014160002070BD000070B50446CF
:108210000068416821F010014160FDF7A5F80546AE
:108220004FF47A7607E000BFFDF79EF8401BB0429E
:1082300001D9032070BD206840688006F4D5002075
:1082400070BD0168086A496A89B241EA0040704716
:10825000006881698AB2C1698BB2816989B28A4238
:1082600003D0C06961F31F40704743EA0240704782
:10827000F0B56424C1EBC1030927A500072603EB71
:1082800001130329B3FBF7F100F5FA60114401442F
:108290000AD2401EB0FBF4F201EB9001B0FBF5F006
:1082A000891A0844001D08E0B0FBF4F201EB9001CC
:1082B000B0FBF5F0891A0844801CB0FBF6F106FB10
:1082C0001100C0B2F0BD70B50D4606460024FFF7A0
:1082D00082FF48B93168280C08623168A8B2486248
:1082E0003046FFF793FF00B10124204670BD70B502
:1082F0000D4606460024FFF76EFF48B93168280C8A
:1083000088613168A8B2C8613046FFF77FFF00B1CD
:108310000124204670BD00002DE9F04F8FB0A02051
:10832000DFF874904FF480750DF114084FF0000BD6
:10833000CDF810004FF0FF302021CDF80080CDE9BE
:10834000011010232A4615480499FDF7CDFAD9E902
:108350001667DFF84CA0D9F8544007E058F827001A
:10836000FBF785FF2AF81400641C7F1CB442F5DB80
:108370000836C9E9166B2035ADB24846C9F85440F5
:10838000B5F5FA7FD6D30821C0F854B0C9F8581013
:108390000FB0BDE8F08F0000000000203403002083
:1083A000C80500202DE9F04F3C4D8BB0686FFBF7FE
:1083B00050FF0390A86FFBF74CFF394C0490A06866
:1083C000FBF747FF05906068FBF743FF06902068C6
:1083D000FBF73FFF0790E068FBF73BFF0890606901
:1083E000FBF737FF09902069FBF733FF04F5DC77D3
:1083F0000A907868A021401CA5F1800478600128CB
:1084000002DD22892032228101261F2802D130027A
:108410007E6020810DF10C094FF0FF332022484689
:108420008DE80D00228910231D485030FDF76CFBAC
:108430007A684FF0000A012A13DB5046C5F870A095
:108440000146A36D01E0491C08338A42FBDCA365A9
:108450002E67616D01E00831761CB242FBDC61657C
:108460002867A046E66D646DDFF838B0D8F858701C
:10847000BC4208DA59F82600FBF7F9FE2BF8140085
:10848000641C761CF4E7C8F85CA0C5F870A0C8F8B6
:1084900054A0C8F858A00BB0BDE8F08F80000020B1
:1084A000E4020020C80500202DE9F04FA5B0A0206F
:1084B00003904FF400694FF410607A4C4D460DF173
:1084C000340A0DF1140B4FF404674FF020084FF0FD
:1084D000FF360490206FB8B1CDF800B0CDE9018629
:1084E00010232A4670480399FDF7FEF9206F2035C6
:1084F000401CADB22067BD42ECD300272767E06D7A
:108500004D46012803D003E0CDF800A0E6E7079729
:108510000798DFF8989110F0FF4F4FF0010A52D002
:108520000D98FBF7A4FEA9F8300209F509750E981D
:10853000FBF79DFEE8810F98FBF799FE28821098C3
:10854000FBF795FE68821198FBF791FEA8821298BE
:10855000FBF78DFEE8821398FBF789FE28831498B9
:10856000FBF785FE68830598FBF781FEA8830698D4
:10857000FBF77DFEE883A5F820A00898FBF777FEBF
:1085800080B22880E0630998FBF771FE80B26880B2
:1085900020640A98FBF76BFE80B2A8806064444DAB
:1085A000CDE900580296DDE9031210233E48FDF79D
:1085B0009BF93C48E16D8038012966D06968012942
:1085C00064DB298864E0202115A8FBF737FE282109
:1085D000A9F830123222A9F83222A9F83412A9F8E7
:1085E0003622A9F83812A9F83A228721A9F83C12B4
:1085F000A9F83E12A9F84012A9F842A2A9F844A28B
:10860000A9F824724846E763A0F826722764A9F8FF
:10861000287267642749284ACDE91E21CDE9202127
:108620001D9126492491CDE9222108464FF07E5123
:10863000CDE915010020CDE9171019901A901DA958
:10864000CDE9001810232A46029617480399FDF732
:108650005BFA3346012214480399FDF78FF800288E
:10866000F7D115A9CDE9001805F1200210230296D3
:108670000D480399FDF748FA334601220A48039949
:10868000FDF77CF80028F7D189E76F604FF480711F
:10869000018101890A4801606968416025B0BDE82F
:1086A000F08F00008000002034030020C805002067
:1086B0009C040020000020420000484200000743C4
:1086C000E8010020704710B5FDF7FAFABDE8104048
:1086D000FEF741BA30B59BB00920009001254FF458
:1086E000803004210795CDE902010224CDE908403C
:1086F000019005954FF4E010CDE90A044FF4C060F5
:108700000C9040200D906846FDF744FE00B1FEE756
:108710000F20CDE90E0400204FF48061CDE9100157
:10872000129002210EA8FDF703FD00B1FEE7032021
:1087300013904FF4007014908001159013A8FDF76A
:1087400033FC00B1FEE7FDF79DFD4FF47A71B0FBFD
:10875000F1F0FEF7ECF90420FEF7DBF904480567B9
:1087600000221146501EFDF737FB1BB030BD000044
:10877000000042421048016841F001010160416877
:108780000E4A1140416001680D4A114001600168C4
:1087900021F480210160416821F4FE0141600168FB
:1087A00021F0A05101604FF47F0181600021C1627E
:1087B0000449C00308607047001002400000FFF049
:1087C000FFFFF6FE08ED00E00148FEF7EEBA0000FC
:1087D0009C0300200148FEF7E8BA0000DC030020FB
:1087E0000148FEF7E2BA00001C040020F0B5026860
:1087F000194B1A4C1A4D1B4E4FF08047984207D028
:10880000B84205D0A04203D0A84201D0B04204D162
:1088100022F0700C4A6842EA0C02984207D0B84233
:1088200005D0A04203D0A84201D0B04203D122F427
:108830004074CA68224322F080044A6922430260DD
:108840008A68C2620A688262984201D1096901633A
:1088500001214161F0BD0000002C014000040040F6
:1088600000080040000C004010B5846842EA032272
:1088700024F47F440A432243826010BD826822F0C0
:1088800070020A4342F007018160704710B5036A25
:10889000046A24F001040462846924F0F00444EAC8
:1088A000021423F00A020A438461026210BD10B56B
:1088B000036A23F0100303628369046A23F470439C
:1088C00043EA023224F0A00343EA0111826101620B
:1088D00010BD00002DE9F05FFB4C002604F5C075CB
:1088E000A661286BDFF8E49340002863B9F80822FA
:1088F000B9F83C124FF6FE7C8A4202D240F00100E9
:1089000001E000EA0C00F24B2863A3F18008DE636B
:10891000D866024631463046C8F8706012F001074A
:1089200003D0082903D2491C01E001B1491E5208B5
:10893000401C0828F2DBDA66D963C8F83870C8F83A
:108940007000686B40006863B9F80A72B9F83E229B
:10895000974202D240F0010001E000EA0C00686397
:1089600018672F4605461E64B34630463246C8F89F
:10897000706000BF15F0010603D0082803D2401C28
:1089800001E000B1401E6D08521C082AF2DB1D6791
:108990001864C8F83860C8F87020BA6B38465200BE
:1089A000BA63B9F80C62B9F84072BE4202D242F022
:1089B000010201E002EA0C028263C3F844B082467D
:1089C0005E465A67174630460246C8F870B000BF88
:1089D00017F0010C03D0082803D2401C01E000B1BD
:1089E000401E7F08521C082AF2DBB94B01254FF0CC
:1089F00003095F675864B548C8F838C0C8F87020E4
:108A0000B0F842C2A3F180004CF2503702688038BF
:108A1000521C036EC06F4FF47A7B401CBCF1010FF7
:108A20000CD0DFF8ACA206297ED3CAF81850C8F8DB
:108A30000020DAF80C10002977D0A5E1D8F868C03A
:108A4000BCF1010F14D0A0480629C2696ED3A0481A
:108A5000CAF844508561C8F82C60D8F82010404608
:108A6000491CC8F82010B94201D1002A7ED0E3E0A9
:108A7000DFF85CA206292FD3CAF81850C8F80020E6
:108A8000DAF80C1089B9CAF80C504BB900228021D1
:108A90009048FCF764FC8D48B0F80812A0F80E125C
:108AA000012291038C48FCF75AFCC8F80450D8F80E
:108AB00000104046B9421BD12667E667616EB9B91E
:108AC000656645670122D1038348C8F87890FCF7B2
:108AD00046FC00F085FC0BE0D8F804204146012A52
:108AE00006D1E067B84203D125670E60C8F804607C
:108AF000DAF8400006283AD3CAF81C50D8F80C20FF
:108B0000521CC8F80C20DAF81000B8B9CAF8105096
:108B1000206E70B900224FF480716E48FCF71FFC84
:108B20006A48B0F80A1202E045E120E169E0A0F8E5
:108B30001012012291036848FCF711FCC8F810508C
:108B4000D8F80C104046B9421FD166678660A16E06
:108B5000D9B90221A5664167012289035E48C8F898
:108B60007890FCF7FCFB00F03BFC0EE04EE0D8F800
:108B700010104046012908D18168491C8160B94222
:108B800003D16567C660C8F81060DAF84410504633
:108B9000062927D30562D8F81820521CC8F81820D7
:108BA000416991B9CAF81450206E48B90022402199
:108BB0004848FCF7D4FB4548B0F80C12A0F8121254
:108BC000012291034448FCF7CAFBC8F81C50D8F8AE
:108BD00018104046B94241DBA6674661E16EE9BB29
:108BE000E56682E0D8F81C104046012936D141697B
:108BF000491C4161B94231DB8661A567C8F81C6038
:108C000089E0CAF84460012A0CD015E0E5614567A7
:108C10000122D1033048C8F87890FCF7A0FB00F09F
:108C2000DFFB09E0C8F82060D8F82C10491CC8F810
:108C30002C10B94200D1E6612548006C062812D3F9
:108C40002348CAF84850C561C8F83060D8F82410E5
:108C50004046491CC8F82410B94200E033E01FD157
:108C6000216A31B11CE0CAF84860206A01280DD0A1
:108C700016E0022125624167012289031648C8F8DF
:108C80007890FCF76CFB00F0ABFB09E0C8F82460BF
:108C9000D8F83010491CC8F83010B94200D126620B
:108CA0000B48416C062919D3CAF84C500562C8F824
:108CB0003460D8F828104046491CC8F82810B9423A
:108CC00029DB616A81B126E000000020C805002090
:108CD000000100200010014000140140CAF84C605F
:108CE000606A01280DD016E06562C0F87490012218
:108CF000D1038848C8F87890FCF731FB00F070FB8E
:108D000009E0C8F82860D8F83410491CC8F83410B5
:108D1000B94200D16662DFF800A2DDE0A06A002857
:108D20000DD1D8F850004746411CC8F8501058459E
:108D300005DB7D67BD6700F053FB3E65A562D0E0B3
:108D4000DAF81400012810D1206B00280DD1D8F8D2
:108D500058004746411CC8F85810584505DBC7E97C
:108D60001D9500F03DFBBE652563BDE8F09FCAF888
:108D70000C5023B9002280216848FCF7F0FA012248
:108D800091036448FCF7EBFAC8F80450D8F80010D7
:108D90004046B9421BD12667E667616EB9B9656680
:108DA00045670122D1035B48C8F87890FCF7D7FAF1
:108DB00000F016FB0BE0D8F804204146012A06D14A
:108DC000E067B84203D125670E60C8F80460DAF89E
:108DD0004000062830D3CAF81C50D8F80C20521C8A
:108DE000C8F80C20DAF8101071B9CAF81050206ECB
:108DF00028B900224FF480714848FCF7B0FA0122EC
:108E000091034448FCF7ABFAC8F81050D8F80C109E
:108E10004046B9421ED166678660A16ED1B9022173
:108E2000A5664167012289033A48C8F87890FCF7A3
:108E300096FA00F0D5FA0DE0D8F810104046012956
:108E400008D18168491C8160B94203D16567C66059
:108E5000C8F81060DAF8440006282FD3CAF820506A
:108E6000D8F81820521CC8F81820DAF8140068B98D
:108E7000CAF81450206E20B9002240212748FCF780
:108E80006EFA012291032348FCF769FAC8F81C50D6
:108E9000D8F818104046B9421EDBA6674661E16E5D
:108EA000D1B9E566C0F874900122D1031948C8F819
:108EB0007890FCF754FA00F093FA0DE0D8F81C1003
:108EC0004046012908D14169491C4161B94203DB8F
:108ED0008661A567C8F81C60DAF80C0001283FF429
:108EE0001DAFDAF8100001287FF42AAFE06A0028ED
:108EF000FAD1D8F854004746411CC8F854105845D8
:108F0000FFF61EAF0220C7E91D0500F069FA7E6575
:108F1000E56215E700140140000100200010014047
:108F20002DE9F05FFE4AFF49A2F18000D2F860C04F
:108F300001270CF1010CC2F860C08469B1F8083255
:108F40004FF0000E012C39D004464FF4FA78E56B4F
:108F5000D4E90D64BCF1140F1DDAD2F83CC0A3EBC8
:108F60000C0CB44502DAD66B9E1B4663B1F80A625C
:108F7000D2F840C0A6EB0C0CAC4502DA156C751BA0
:108F8000C563B1F80C52566CAE1BA64216DA546C8F
:108F90002C1B846312E001D1A1F81C62C0F834805C
:108FA00002D100BFA1F81E52C0F83C8001D1A1F847
:108FB0002042C0F83880C2F860E08761DA484FF696
:108FC000FE75046866000660446864004460D0F87A
:108FD00024C0BCF1000B0FD1D2F83CC0B1F83082F4
:108FE000A3EB0C0CC44503DD44F00104446003E032
:108FF0002E402C40C0E90064D46B1B1BB1F83242F8
:10900000A34206DD46F00103036043682B40436042
:1090100002E006EA05030360DFF804A3D0F800C00D
:109020000AF1800A8146CAF854C04668CAF824E0AA
:109030007046CAF828E0CAF85860904603460446CD
:10904000C2F870E01CF0010203D0082B03D25B1CB5
:1090500001E003B15B1E641C4FEA5C0C082CF1DBE1
:10906000CAF854C0CAF82430C8F838205446864696
:109070000246C8F8700000BF16F0010303D00828AC
:1090800003D2401C01E000B1401E7608521C082AA1
:10909000F2DBA062CAF85860C8F83830C8F870200F
:1090A000D9F808304A465C00C9F80840D9F80C30B5
:1090B0005B00C9F80C30D9F828608EB9B1F80A62A3
:1090C000D8F840C0A6EB0C06B1F834C2664503DD03
:1090D00043F00103D36003E02C402B40C2E902437C
:1090E000B1F80A32D8F840401B1BB1F83642A3420F
:1090F000936807DD43F001039360D3682B40C9F800
:109100000C3002E02B40C9F80830874AC146966807
:10911000CAF85C60D2F80CC0CAF82CE07246CAF8F3
:1091200030E0CAF860C013461C46C8F870E000BFC3
:1091300016F0010803D0082B03D25B1C01E003B139
:109140005B1E7608641C082CF2DBCAF85C60CAF867
:109150002C30C9F8388096461346C9F8702000BFF5
:109160001CF0010403D0082A03D2521C01E002B112
:10917000521E5B1C4FEA5C0C082BF1DBCAF860C086
:10918000CAF83020C9F83840674CC9F87030C84672
:10919000226953002361626952006261E66A8EB9F6
:1091A000B1F80C62D8F844C0A6EB0C06B1F838C28E
:1091B000664503DD42F00102626103E02B402A4074
:1091C000C4E90432B1F80C22D8F84430B1F83A12AC
:1091D000D21A8A42216906DD41F0010121616169EB
:1091E0002940616101E029402161D4F810C0CAF82A
:1091F00064C0D1466669CAF868607546C9E90DEE73
:109200002A46C24629461346C8F870E01CF00108F9
:1092100003D0082A03D2521C01E002B1521E5B1C8B
:109220004FEA5C0C082BF1DBC9F864C0C9F83420A4
:10923000CAF838802A46CAF8705000BF16F00103F9
:1092400003D0082903D2491C01E001B1491E760868
:10925000521C082AF2DBC9F86860C9F83810CAF84D
:109260003830CAF870205646D9F80C10C8464FF06E
:10927000020A81B9BBF1000F0DD106280BD3A069FA
:1092800048B9A761C6E91D7A0122D1032748FCF736
:1092900066F800F0A5F8C146D8F82400DFF8908001
:1092A000DFF890B0062807D30122202140466762EC
:1092B000FCF755F8012206E00122202140466562B4
:1092C000FCF74DF8002240214046FCF748F8012207
:1092D00051035846FCF743F8D9F8100098B9A06A32
:1092E00088B9D9F8300006280DD3E06958B9E7618C
:1092F000C6F874A00122D1030C48C6F878A0FCF788
:109300002EF800F06DF8D9F82C00062814D30122AD
:1093100011465846A762FCF722F8012213E000002C
:1093200080000020C80500208001002000140140BA
:109330000018014000100140012211465846A56264
:10934000FCF70DF8002204215846FCF708F801222A
:1093500008215846FCF703F8D9F8140090B9E06AE0
:1093600080B9D9F8380006280CD3206A50B90320F8
:109370002762C6E91D0A0122D1031848FBF7EFFF57
:1093800000F02EF84FF40071D9F834004E10062882
:1093900011D3012245464046FBF7E1FF0122314649
:1093A0002846FBF7DCFF012280212846FBF7D7FF88
:1093B000E762BDE8F09FE562012244464046FBF7C4
:1093C000CEFF002231462046FBF7C9FF2046BDE80C
:1093D000F05F01228021FBF7C2BF000000140140B2
:1093E00010B500220F491048FDF7E7F90D4900229A
:1093F000C2310D48FDF7BAF90A490B48A4388A78FA
:1094000002604A784260097881600649C2318A78F0
:10941000C260CA78026149784161BDE81040FEF738
:10942000C1BF00000A0000208803002010B5406A78
:109430000021C185C184FDF718FE10BD0168CA680E
:1094400022F49072CA6001684A6922F001024A61FE
:10945000202180F83A10704710B590F83A10222970
:1094600001D0022010BD8168B1F5805F11D0016983
:10947000002901681FD0496801F07F03816A4A1CF6
:1094800082620B70C18D491E0904090CC18518D078
:109490002BE00269816A002A0268526805D0D2B2C4
:1094A0000A80816A491C8162ECE7C2F308020A80E3
:1094B000816A891CF7E74A68816A4B1C83620A70DB
:1094C000E0E70168CA6822F02002CA600168CA6841
:1094D00022F48072CA6001684A6922F001024A617E
:1094E000202180F83A10FDF7B7FE002010BD0000E3
:1094F0002DE9F041044600680169E26821F4405119
:10950000114301612169A06808436169084321682A
:10951000CA6841F20C639A430243CA6020684169F9
:10952000A26921F44071114341614C4920686425CE
:10953000322688423CD1FCF7BBFE00EBC00101EBB8
:10954000001061688900B0FBF1F7FCF7B1FE00EB99
:10955000C00101EB00106168B0468900B0FBF1F07A
:10956000B0FBF5F06FF01801484307EB800106EB04
:109570000110B0FBF5F000F0F006FCF799FE00EBEF
:10958000C00101EB001061688900B0FBF1F0B0FB95
:10959000F5F006EB0016FCF78BFE00EBC00101EBCB
:1095A000001061688900B0FBF1F7FCF781FE3BE039
:1095B000FCF76EFE00EBC00101EB00106168890052
:1095C000B0FBF1F7FCF764FE00EBC00101EB00100B
:1095D0006168B0468900B0FBF1F0B0FBF5F06FF0C8
:1095E0001801484307EB800106EB0110B0FBF5F0D2
:1095F00000F0F006FCF74CFE00EBC00101EB0010A0
:1096000061688900B0FBF1F0B0FBF5F006EB0016E5
:10961000FCF73EFE00EBC00101EB00106168890021
:10962000B0FBF1F7FCF734FE00EBC00101EB0010DA
:1096300061688900B0FBF1F0B0FBF5F06FF0180144
:10964000484307EB800108EB0110B0FBF5F02168FF
:1096500000F00F0030448860BDE8F0810038014020
:1096600090F83910212901D0022070478168B1F5A6
:10967000805F016A0BD04A1C02620268097851605F
:10968000C18C491E0904090CC1840ED017E0098859
:109690000268C1F30801516001690029016A02D022
:1096A000491C0162ECE7891CFBE70168CA6822F0EB
:1096B0008002CA600068C16841F04001C1600020BA
:1096C00070472DE9F041984617460E460446069D20
:1096D0001DE0681C1BD02DB1FBF746FEA0EB080077
:1096E000A84214D92068C16821F4D071C1602068F3
:1096F000416921F001014161202084F8390084F89A
:109700003A00002084F838000320BDE8F08120688A
:10971000006836EA000004D00020B842D9D000200A
:10972000F3E70120F9E7000038B5124C2068016822
:10973000C1F34012C16801F0200142B139B10E48B5
:1097400000688047206801684068009038BD016863
:10975000C943090608D4C068000605D50748006853
:1097600001B0BDE830400047BDE838400148FDF792
:109770007DBC00005C040020280200202C02002098
:10978000FEE7FEE702E008C8121F08C1002AFAD16E
:1097900070477047002001E001C1121F002AFBD171
:1097A0007047000013480178622922D141786F295F
:1097B0001FD181786F291CD1C178742919D1017901
:1097C000312916D14179302913D18079372810D128
:1097D000094945F2AA500860BFF34F8F0748016856
:1097E000074A01F4E06111430160BFF34F8F00BFEE
:1097F000FDE77047D0010020BC6C00400CED00E09C
:109800000400FA0570B5064D00242878012802D01E
:109810000624204670BD2869804700202870F8E79C
:109820000802002070B50C460988002505292FD1B3
:10983000417840F2CF760A0281781143C278491C00
:109840001302027989B21A43531EB34220D2002375
:109850002380012300F8013B2688761C26805607CA
:1098600003D003EBD203DEB201E0C2F3C70600F877
:10987000016B23885B1C2380002300F0E1FA18B100
:1098800000F0F6FF054604E020883044208000E028
:109890000325284670BD70B50C46098800250529AA
:1098A0002FD1417840F2CF760A0281781143C278F5
:1098B000491C1302027989B21A43531EB34220D2C3
:1098C00000232380022300F8013B23885B1C2380B4
:1098D000530704D0012303EBD203DEB201E0C2F34D
:1098E000C70600F8016B23885B1C238000F0F8FAA0
:1098F00018B100F0BDFF054604E020883044208008
:1099000000E00325284670BD70B50C460988002686
:10991000052928D1417805790A0281781143C27856
:10992000491C45EA02256A1E89B27C2A1BD80022FE
:109930002280032200F8012B22880023521C22805F
:109940006A0000F8012B2288521C22802A4600F06F
:1099500001FB18B100F08CFF064605E0208800EB03
:109960004500208000E00326304670BD70B50C46EF
:1099700009880026052927D1417805790A028178CE
:109980001143C278491C45EA02256A1E89B27C2A25
:109990001AD200222280042200F8012B2288521CB5
:1099A00022806A0000F8012B2288521C22802A465D
:1099B00000F00AFB18B100F05BFF064605E02088C6
:1099C00000EB4500208000E00326304670BD2DE905
:1099D000F0410446088800270D460A2842D36078E3
:1099E00026790102A078227A0843401C1FFA80F8E9
:1099F000E07846EA00266079731E0102A0790843E8
:109A0000401C81B2E0797C2B42EA0022607A28D89F
:109A10003AB3792A25D8B0EB420F22D1012304F1C1
:109A20000A0000F097FA98B90021298017212170C7
:109A30002988601C491C2980710000F8011B2988B5
:109A40000023491C29803246414600F083FA18B1B0
:109A500000F00EFF074605E0288800EB460028804E
:109A600000E003273846BDE8F081000070B5064CE1
:109A70000D4606492288401CFAF7C7FB2088401C87
:109A80002880002070BD0000C002002034090020A2
:109A900038B50988002405290BD141780A0281785C
:109AA0001143491C027989B21AB9C278FF2A03D03E
:109AB00012B10324204638BD00228DF80120C07861
:109AC000FF280CD08DF8002001231A46684600F0CC
:109AD000B7F90028EED000F0CBFE0446EAE70120FB
